{
  "_format": "hh-sol-artifact-1",
  "contractName": "SimpleSwap",
  "sourceName": "contracts/simple.sol",
  "abi": [
    {
      "inputs": [
        {
          "internalType": "address",
          "name": "tokenA",
          "type": "address"
        },
        {
          "internalType": "address",
          "name": "tokenB",
          "type": "address"
        },
        {
          "internalType": "uint256",
          "name": "amountADesired",
          "type": "uint256"
        },
        {
          "internalType": "uint256",
          "name": "amountBDesired",
          "type": "uint256"
        },
        {
          "internalType": "uint256",
          "name": "amountAMin",
          "type": "uint256"
        },
        {
          "internalType": "uint256",
          "name": "amountBMin",
          "type": "uint256"
        },
        {
          "internalType": "address",
          "name": "to",
          "type": "address"
        },
        {
          "internalType": "uint256",
          "name": "deadline",
          "type": "uint256"
        }
      ],
      "name": "addLiquidity",
      "outputs": [
        {
          "internalType": "uint256",
          "name": "amountA",
          "type": "uint256"
        },
        {
          "internalType": "uint256",
          "name": "amountB",
          "type": "uint256"
        },
        {
          "internalType": "uint256",
          "name": "liquidityMinted",
          "type": "uint256"
        }
      ],
      "stateMutability": "nonpayable",
      "type": "function"
    },
    {
      "inputs": [
        {
          "internalType": "address",
          "name": "tokenA",
          "type": "address"
        },
        {
          "internalType": "address",
          "name": "tokenB",
          "type": "address"
        }
      ],
      "name": "getPrice",
      "outputs": [
        {
          "internalType": "uint256",
          "name": "price",
          "type": "uint256"
        }
      ],
      "stateMutability": "view",
      "type": "function"
    },
    {
      "inputs": [
        {
          "internalType": "address",
          "name": "tokenA",
          "type": "address"
        },
        {
          "internalType": "address",
          "name": "tokenB",
          "type": "address"
        }
      ],
      "name": "getReserves",
      "outputs": [
        {
          "internalType": "uint256",
          "name": "reserveA",
          "type": "uint256"
        },
        {
          "internalType": "uint256",
          "name": "reserveB",
          "type": "uint256"
        }
      ],
      "stateMutability": "view",
      "type": "function"
    },
    {
      "inputs": [
        {
          "internalType": "address",
          "name": "tokenA",
          "type": "address"
        },
        {
          "internalType": "address",
          "name": "tokenB",
          "type": "address"
        },
        {
          "internalType": "uint256",
          "name": "liquidityAmount",
          "type": "uint256"
        },
        {
          "internalType": "uint256",
          "name": "amountAMin",
          "type": "uint256"
        },
        {
          "internalType": "uint256",
          "name": "amountBMin",
          "type": "uint256"
        },
        {
          "internalType": "address",
          "name": "to",
          "type": "address"
        },
        {
          "internalType": "uint256",
          "name": "deadline",
          "type": "uint256"
        }
      ],
      "name": "removeLiquidity",
      "outputs": [
        {
          "internalType": "uint256",
          "name": "amountA",
          "type": "uint256"
        },
        {
          "internalType": "uint256",
          "name": "amountB",
          "type": "uint256"
        }
      ],
      "stateMutability": "nonpayable",
      "type": "function"
    },
    {
      "inputs": [
        {
          "internalType": "uint256",
          "name": "amountIn",
          "type": "uint256"
        },
        {
          "internalType": "uint256",
          "name": "amountOutMin",
          "type": "uint256"
        },
        {
          "internalType": "address[]",
          "name": "path",
          "type": "address[]"
        },
        {
          "internalType": "address",
          "name": "to",
          "type": "address"
        },
        {
          "internalType": "uint256",
          "name": "deadline",
          "type": "uint256"
        }
      ],
      "name": "swapExactTokensForTokens",
      "outputs": [
        {
          "internalType": "uint256[]",
          "name": "amounts",
          "type": "uint256[]"
        }
      ],
      "stateMutability": "nonpayable",
      "type": "function"
    }
  ],
  "bytecode": "0x6080604052348015600f57600080fd5b50611d838061001f6000396000f3fe608060405234801561001057600080fd5b50600436106100575760003560e01c806338ed17391461005c578063ac41865a1461008c578063baa2abde146100bc578063d52bb6f4146100ed578063e8e337001461011e575b600080fd5b61007660048036038101906100719190611120565b610150565b6040516100839190611278565b60405180910390f35b6100a660048036038101906100a1919061129a565b61063d565b6040516100b391906112e9565b60405180910390f35b6100d660048036038101906100d19190611304565b610744565b6040516100e49291906113a6565b60405180910390f35b6101076004803603810190610102919061129a565b610b80565b6040516101159291906113a6565b60405180910390f35b610138600480360381019061013391906113cf565b610c18565b60405161014793929190611485565b60405180910390f35b606060028585905014610198576040517f08c379a000000000000000000000000000000000000000000000000000000000815260040161018f90611519565b60405180910390fd5b814211156101db576040517f08c379a00000000000000000000000000000000000000000000000000000000081526004016101d290611585565b60405180910390fd5b6000858560008181106101f1576101f06115a5565b5b905060200201602081019061020691906115d4565b905060008686600181811061021e5761021d6115a5565b5b905060200201602081019061023391906115d4565b905060008060008473ffffffffffffffffffffffffffffffffffffffff1673ffffffffffffffffffffffffffffffffffffffff16815260200190815260200160002060008373ffffffffffffffffffffffffffffffffffffffff1673ffffffffffffffffffffffffffffffffffffffff16815260200190815260200160002090506000816000015490506000826001015490508473ffffffffffffffffffffffffffffffffffffffff166323b872dd33308f6040518463ffffffff1660e01b815260040161030393929190611610565b6020604051808303816000875af1158015610322573d6000803e3d6000fd5b505050506040513d601f19601f82011682018060405250810190610346919061167f565b610385576040517f08c379a000000000000000000000000000000000000000000000000000000000815260040161037c906116f8565b60405180910390fd5b60008c116103c8576040517f08c379a00000000000000000000000000000000000000000000000000000000081526004016103bf90611764565b60405180910390fd5b6000821180156103d85750600081115b610417576040517f08c379a000000000000000000000000000000000000000000000000000000000815260040161040e906117d0565b60405180910390fd5b60006103e58d610427919061181f565b905060008282610437919061181f565b90506000826103e88661044a919061181f565b6104549190611861565b90506000818361046491906118c4565b90508e8110156104a9576040517f08c379a00000000000000000000000000000000000000000000000000000000081526004016104a090611941565b60405180910390fd5b8f8760000160008282546104bd9190611861565b92505081905550808760010160008282546104d89190611961565b925050819055508773ffffffffffffffffffffffffffffffffffffffff1663a9059cbb8d836040518363ffffffff1660e01b815260040161051a929190611995565b6020604051808303816000875af1158015610539573d6000803e3d6000fd5b505050506040513d601f19601f8201168201806040525081019061055d919061167f565b61059c576040517f08c379a000000000000000000000000000000000000000000000000000000000815260040161059390611a0a565b60405180910390fd5b600267ffffffffffffffff8111156105b7576105b6611a2a565b5b6040519080825280602002602001820160405280156105e55781602001602082028036833780820191505090505b5099508f8a6000815181106105fd576105fc6115a5565b5b602002602001018181525050808a60018151811061061e5761061d6115a5565b5b6020026020010181815250505050505050505050509695505050505050565b6000806000808573ffffffffffffffffffffffffffffffffffffffff1673ffffffffffffffffffffffffffffffffffffffff16815260200190815260200160002060008473ffffffffffffffffffffffffffffffffffffffff1673ffffffffffffffffffffffffffffffffffffffff1681526020019081526020016000209050600081600001541180156106d5575060008160010154115b610714576040517f08c379a000000000000000000000000000000000000000000000000000000000815260040161070b906117d0565b60405180910390fd5b8060000154670de0b6b3a76400008260010154610731919061181f565b61073b91906118c4565b91505092915050565b6000808242111561078a576040517f08c379a000000000000000000000000000000000000000000000000000000000815260040161078190611585565b60405180910390fd5b86600160003373ffffffffffffffffffffffffffffffffffffffff1673ffffffffffffffffffffffffffffffffffffffff16815260200190815260200160002054101561080c576040517f08c379a000000000000000000000000000000000000000000000000000000000815260040161080390611aa5565b60405180910390fd5b60008060008b73ffffffffffffffffffffffffffffffffffffffff1673ffffffffffffffffffffffffffffffffffffffff16815260200190815260200160002060008a73ffffffffffffffffffffffffffffffffffffffff1673ffffffffffffffffffffffffffffffffffffffff168152602001908152602001600020905060008160000154905060008260010154905080826108a99190611861565b828b6108b5919061181f565b6108bf91906118c4565b945080826108cd9190611861565b818b6108d9919061181f565b6108e391906118c4565b935088851015610928576040517f08c379a000000000000000000000000000000000000000000000000000000000815260040161091f90611b11565b60405180910390fd5b8784101561096b576040517f08c379a000000000000000000000000000000000000000000000000000000000815260040161096290611b7d565b60405180910390fd5b8483600001600082825461097f9190611961565b925050819055508383600101600082825461099a9190611961565b9250508190555089600160003373ffffffffffffffffffffffffffffffffffffffff1673ffffffffffffffffffffffffffffffffffffffff16815260200190815260200160002060008282546109f09190611961565b925050819055508b73ffffffffffffffffffffffffffffffffffffffff1663a9059cbb88876040518363ffffffff1660e01b8152600401610a32929190611995565b6020604051808303816000875af1158015610a51573d6000803e3d6000fd5b505050506040513d601f19601f82011682018060405250810190610a75919061167f565b610ab4576040517f08c379a0000000000000000000000000000000000000000000000000000000008152600401610aab90611be9565b60405180910390fd5b8a73ffffffffffffffffffffffffffffffffffffffff1663a9059cbb88866040518363ffffffff1660e01b8152600401610aef929190611995565b6020604051808303816000875af1158015610b0e573d6000803e3d6000fd5b505050506040513d601f19601f82011682018060405250810190610b32919061167f565b610b71576040517f08c379a0000000000000000000000000000000000000000000000000000000008152600401610b6890611c55565b60405180910390fd5b50505097509795505050505050565b60008060008060008673ffffffffffffffffffffffffffffffffffffffff1673ffffffffffffffffffffffffffffffffffffffff16815260200190815260200160002060008573ffffffffffffffffffffffffffffffffffffffff1673ffffffffffffffffffffffffffffffffffffffff16815260200190815260200160002090508060000154816001015492509250509250929050565b600080600083421115610c60576040517f08c379a0000000000000000000000000000000000000000000000000000000008152600401610c5790611585565b60405180910390fd5b60008060008d73ffffffffffffffffffffffffffffffffffffffff1673ffffffffffffffffffffffffffffffffffffffff16815260200190815260200160002060008c73ffffffffffffffffffffffffffffffffffffffff1673ffffffffffffffffffffffffffffffffffffffff1681526020019081526020016000209050600081600001549050600082600101549050600082148015610d015750600081145b15610d11578b95508a9450610de9565b600082828e610d20919061181f565b610d2a91906118c4565b90508b8111610d815789811015610d76576040517f08c379a0000000000000000000000000000000000000000000000000000000008152600401610d6d90611b7d565b60405180910390fd5b8c9650809550610de7565b600082848e610d90919061181f565b610d9a91906118c4565b90508b811015610ddf576040517f08c379a0000000000000000000000000000000000000000000000000000000008152600401610dd690611b11565b60405180910390fd5b8097508c9650505b505b8d73ffffffffffffffffffffffffffffffffffffffff166323b872dd3330896040518463ffffffff1660e01b8152600401610e2693929190611610565b6020604051808303816000875af1158015610e45573d6000803e3d6000fd5b505050506040513d601f19601f82011682018060405250810190610e69919061167f565b610ea8576040517f08c379a0000000000000000000000000000000000000000000000000000000008152600401610e9f90611cc1565b60405180910390fd5b8c73ffffffffffffffffffffffffffffffffffffffff166323b872dd3330886040518463ffffffff1660e01b8152600401610ee593929190611610565b6020604051808303816000875af1158015610f04573d6000803e3d6000fd5b505050506040513d601f19601f82011682018060405250810190610f28919061167f565b610f67576040517f08c379a0000000000000000000000000000000000000000000000000000000008152600401610f5e90611d2d565b60405180910390fd5b85836000016000828254610f7b9190611861565b9250508190555084836001016000828254610f969190611861565b925050819055508486610fa99190611861565b600160008a73ffffffffffffffffffffffffffffffffffffffff1673ffffffffffffffffffffffffffffffffffffffff1681526020019081526020016000206000828254610ff79190611861565b92505081905550848661100a9190611861565b9350505050985098509895505050505050565b600080fd5b600080fd5b6000819050919050565b61103a81611027565b811461104557600080fd5b50565b60008135905061105781611031565b92915050565b600080fd5b600080fd5b600080fd5b60008083601f8401126110825761108161105d565b5b8235905067ffffffffffffffff81111561109f5761109e611062565b5b6020830191508360208202830111156110bb576110ba611067565b5b9250929050565b600073ffffffffffffffffffffffffffffffffffffffff82169050919050565b60006110ed826110c2565b9050919050565b6110fd816110e2565b811461110857600080fd5b50565b60008135905061111a816110f4565b92915050565b60008060008060008060a0878903121561113d5761113c61101d565b5b600061114b89828a01611048565b965050602061115c89828a01611048565b955050604087013567ffffffffffffffff81111561117d5761117c611022565b5b61118989828a0161106c565b9450945050606061119c89828a0161110b565b92505060806111ad89828a01611048565b9150509295509295509295565b600081519050919050565b600082825260208201905092915050565b6000819050602082019050919050565b6111ef81611027565b82525050565b600061120183836111e6565b60208301905092915050565b6000602082019050919050565b6000611225826111ba565b61122f81856111c5565b935061123a836111d6565b8060005b8381101561126b57815161125288826111f5565b975061125d8361120d565b92505060018101905061123e565b5085935050505092915050565b60006020820190508181036000830152611292818461121a565b905092915050565b600080604083850312156112b1576112b061101d565b5b60006112bf8582860161110b565b92505060206112d08582860161110b565b9150509250929050565b6112e381611027565b82525050565b60006020820190506112fe60008301846112da565b92915050565b600080600080600080600060e0888a0312156113235761132261101d565b5b60006113318a828b0161110b565b97505060206113428a828b0161110b565b96505060406113538a828b01611048565b95505060606113648a828b01611048565b94505060806113758a828b01611048565b93505060a06113868a828b0161110b565b92505060c06113978a828b01611048565b91505092959891949750929550565b60006040820190506113bb60008301856112da565b6113c860208301846112da565b9392505050565b600080600080600080600080610100898b0312156113f0576113ef61101d565b5b60006113fe8b828c0161110b565b985050602061140f8b828c0161110b565b97505060406114208b828c01611048565b96505060606114318b828c01611048565b95505060806114428b828c01611048565b94505060a06114538b828c01611048565b93505060c06114648b828c0161110b565b92505060e06114758b828c01611048565b9150509295985092959890939650565b600060608201905061149a60008301866112da565b6114a760208301856112da565b6114b460408301846112da565b949350505050565b600082825260208201905092915050565b7f5041544800000000000000000000000000000000000000000000000000000000600082015250565b60006115036004836114bc565b915061150e826114cd565b602082019050919050565b60006020820190508181036000830152611532816114f6565b9050919050565b7f4558500000000000000000000000000000000000000000000000000000000000600082015250565b600061156f6003836114bc565b915061157a82611539565b602082019050919050565b6000602082019050818103600083015261159e81611562565b9050919050565b7f4e487b7100000000000000000000000000000000000000000000000000000000600052603260045260246000fd5b6000602082840312156115ea576115e961101d565b5b60006115f88482850161110b565b91505092915050565b61160a816110e2565b82525050565b60006060820190506116256000830186611601565b6116326020830185611601565b61163f60408301846112da565b949350505050565b60008115159050919050565b61165c81611647565b811461166757600080fd5b50565b60008151905061167981611653565b92915050565b6000602082840312156116955761169461101d565b5b60006116a38482850161166a565b91505092915050565b7f5446000000000000000000000000000000000000000000000000000000000000600082015250565b60006116e26002836114bc565b91506116ed826116ac565b602082019050919050565b60006020820190508181036000830152611711816116d5565b9050919050565b7f414d540000000000000000000000000000000000000000000000000000000000600082015250565b600061174e6003836114bc565b915061175982611718565b602082019050919050565b6000602082019050818103600083015261177d81611741565b9050919050565b7f4e4f524553000000000000000000000000000000000000000000000000000000600082015250565b60006117ba6005836114bc565b91506117c582611784565b602082019050919050565b600060208201905081810360008301526117e9816117ad565b9050919050565b7f4e487b7100000000000000000000000000000000000000000000000000000000600052601160045260246000fd5b600061182a82611027565b915061183583611027565b925082820261184381611027565b9150828204841483151761185a576118596117f0565b5b5092915050565b600061186c82611027565b915061187783611027565b925082820190508082111561188f5761188e6117f0565b5b92915050565b7f4e487b7100000000000000000000000000000000000000000000000000000000600052601260045260246000fd5b60006118cf82611027565b91506118da83611027565b9250826118ea576118e9611895565b5b828204905092915050565b7f4d494e4f00000000000000000000000000000000000000000000000000000000600082015250565b600061192b6004836114bc565b9150611936826118f5565b602082019050919050565b6000602082019050818103600083015261195a8161191e565b9050919050565b600061196c82611027565b915061197783611027565b925082820390508181111561198f5761198e6117f0565b5b92915050565b60006040820190506119aa6000830185611601565b6119b760208301846112da565b9392505050565b7f5454000000000000000000000000000000000000000000000000000000000000600082015250565b60006119f46002836114bc565b91506119ff826119be565b602082019050919050565b60006020820190508181036000830152611a23816119e7565b9050919050565b7f4e487b7100000000000000000000000000000000000000000000000000000000600052604160045260246000fd5b7f4c49510000000000000000000000000000000000000000000000000000000000600082015250565b6000611a8f6003836114bc565b9150611a9a82611a59565b602082019050919050565b60006020820190508181036000830152611abe81611a82565b9050919050565b7f4d494e4100000000000000000000000000000000000000000000000000000000600082015250565b6000611afb6004836114bc565b9150611b0682611ac5565b602082019050919050565b60006020820190508181036000830152611b2a81611aee565b9050919050565b7f4d494e4200000000000000000000000000000000000000000000000000000000600082015250565b6000611b676004836114bc565b9150611b7282611b31565b602082019050919050565b60006020820190508181036000830152611b9681611b5a565b9050919050565b7f5454310000000000000000000000000000000000000000000000000000000000600082015250565b6000611bd36003836114bc565b9150611bde82611b9d565b602082019050919050565b60006020820190508181036000830152611c0281611bc6565b9050919050565b7f5454320000000000000000000000000000000000000000000000000000000000600082015250565b6000611c3f6003836114bc565b9150611c4a82611c09565b602082019050919050565b60006020820190508181036000830152611c6e81611c32565b9050919050565b7f5446310000000000000000000000000000000000000000000000000000000000600082015250565b6000611cab6003836114bc565b9150611cb682611c75565b602082019050919050565b60006020820190508181036000830152611cda81611c9e565b9050919050565b7f5446320000000000000000000000000000000000000000000000000000000000600082015250565b6000611d176003836114bc565b9150611d2282611ce1565b602082019050919050565b60006020820190508181036000830152611d4681611d0a565b905091905056fea26469706673582212207592dbec39c5f27ade7eba2844131180b15f482d29b41f5e4b96cc91625632f064736f6c634300081e0033",
  "linkReferences": {},
  "deployedLinkReferences": {}
}